:1000000078FFE4B8200118F6D8F99000007F007E50
:1000100007E4F0A3DFFCDEFA75812102280A122B27
:10002000779001B9E06F6002EFF02202227FEF12B9
:100030001DA1121BD5FDEF121AA4E0FEA3E0C39D83
:10004000FFEE9C900259F0A3EFF02202237675B2E6
:100050009275B6F9E4F5B743B20143AA01022E87BF
:10006000000000022A44900245EBF0A3EAF0A3E965
:10007000F0900166E024FE601014607414700302B6
:1000800012EB240370EB122DE790015CE0604F90BF
:10009000019FE004F0E4900248F0121C73C39F50EB
:1000A0003A121B3C1220A600000000EBB40110E441
:1000B0009001CAF0A3F09001CE7404F0E4A3F09094
:1000C0000248E0B40210E49001CCF0A3F09001D01B
:1000D0007404F0E4A3F0121DC480BF12269A9001AC
:1000E0009FE0C39401408A122B309001667403F0A4
:1000F00090015CE07003021071E4900248F0121C61
:1001000073FBC39F40030211D3121C7DF583E4757A
:10011000F001121F7C75F02FEF121C82121AF96485
:10012000014E700B121A6FFF121C65F583802B12A3
:100130001C27121C69F583C083C082121A7EFF90AF
:100140000248E0121B3E121B58FBEF2BFFEE3AFE5B
:10015000ED39FDEC38FCD082D08312209A121A8936
:10016000EE121C5CFB121A70FF75F022EB121ACE15
:10017000121B36121D64FF75F02FEB121B7EF583E8
:10018000EE121C5CFB701CE0FF121D6B121B9975BC
:10019000F022EF121B41121D64241EFFE43E900268
:1001A0004F801875F022EB121B41121D64FF900264
:1001B0004F121D20EB121D6BF583EEF0A3EFF090B4
:1001C0000248E0121B3E1220A600000000121DC4CF
:1001D0000210FEE490015CF0C3900084E0940A9069
:1001E0000083E0940050030212E5E4900248F0120C
:1001F0001C73FBC39F40030212B975F02FEBA424BC
:100200007FF582E5F03400F5831220A6000000009F
:1002100075F02FEBA42493F582E5F03400121B99BE
:10022000121C27121C82121AF9FBCAEECAE4F9F852
:10023000121C27121C69121A7CFF121FE4121C02E6
:10024000121DA5121DCB121C19121B99ED121C6652
:10025000F5831220A600000000900248121C7D12B7
:100260001B9975F02FEF121D2DE4F075F022EF129F
:100270001BB8E4F075F022EFA42422F582E5F034F7
:1002800000F583E4121C2F7405F075F022EFA4240E
:1002900024F582E5F03400F583740AF075F02FEF51
:1002A000121BDC740AF0EF121A70FF121CDCF583CB
:1002B00012209A121DC40211EF900002E075F00A9C
:1002C000A4900160F043A9089001667404F0E4FF73
:1002D000122D9B9001A0E07002A3E060057F09123F
:1002E0002D9B021A3412269F021071122EC9900102
:1002F0005CE07003021071900160E0D3940040064E
:10030000E014F0021738E4900248F0121C73F9C3AD
:100310009F400302173875F022E9121ACE121D64AD
:10032000FBCAEECA75F022E9121B41121D64C39B81
:10033000FFEE9A90024BF0A3EFF0E970030215076D
:10034000121A3A121BC4C39FEC9E5024121BB074A5
:1003500001121C2F7405F075F022EF121A73FF754D
:10036000F022EB121ACE12209A75F02FEB0213E353
:10037000121BB0E0607675F022EF121B4DFB75F09A
:1003800022EF121A73FFC3122076900248E0FF7525
:10039000F0225019121B4DFB75F022EF121A731246
:1003A0001C40121DD3121B4D121E5D8028121B41D2
:1003B000121B58FB75F022EF121CE3121A7C121C60
:1003C00040121E0F121CDC121A7CC39BFFEE9AFE19
:1003D000ED99FDEC98FC900248E0121ACB12209A9D
:1003E000121C27121CED121B99121E1C900248E0D1
:1003F000FB75F022121CD2121A9A121D20122F0223
:10040000900248E0FB75F002A4121DF7121BD5D331
:100410009FEC9E50030214E8121AA3121E23FCFD47
:1004200075F022EB121ACE121B58FBD31220761253
:100430001DD3405A121ACEC083C082121A7EFFEC1E
:10044000C0E0EDC0E0EEC0E0EFC0E0900248E01296
:100450001AA4E0FEA3E0FBCAEECAE4121DD3121CEC
:10046000D2121A7CC39BFFEE9AFEED9400FDEC9431
:1004700000121C4B121E0FD0E0FFD0E0FED0E0FDBA
:10048000D0E0FC121DAFED99FDEC980214D4121AC5
:10049000CEC083C082121B58FBE8C0E0E9C0E0EA8E
:1004A000C0E0EBC0E0900248E0FB121AA4121E2349
:1004B00075F022EB121ACE121B58121DAEE499FDF4
:1004C000E4121C4AD0E0FBD0E0FAD0E0F9D0E0F82A
:1004D000EB121E5DFCD082D08312209A121C2712D0
:1004E0001CED121B99121E1C121BB0E06019121C8D
:1004F00030E0D39400121DD34008121C34E014F0F5
:100500008005121BB8E4F0121BFA121CEE121E003A
:1005100075F02FED121CED121AF9D3940AEE6480D7
:100520009480400F121AB3C083C082121A7E121E2A
:1005300046802C121C27121CED121AF9C394F6EEF9
:100540006480947F5021121AB3C083C082121A7E35
:10055000C39401FFEE9400FEED9400FDEC9400FCCA
:10056000D082D08312209A121A89E0FCA3E0FDC346
:10057000EF121C557003021609121A3A121BC4C35B
:100580009FEC9E5026121DDB501575F022EB121ABF
:1005900091EE121C5CFF75F02F121BDC740AF090B8
:1005A0000248E0121B8D121E1C803790024BE0FEA9
:1005B000A3E0FF122F0275F008121C052432F58209
:1005C000E5F03401F583E0FAA3E0C39FEA9E401210
:1005D00075F02FED121D39E06008121A89EEF0A3B4
:1005E000EFF0900248E0FF75F02F121D39E060191E
:1005F000121BEAE0D39400121C274008121BEEE005
:1006000014F08005121D39E4F0121BFA121D7D1240
:100610001E00121D78121AF9D3940AEE6480948099
:100620004010121B8875F02FEF121AA7E475F00125
:10063000801E121D78121AF9C394F6EE6480947F1E
:100640005011121B8875F02FEF121AA774FFF5F0E6
:10065000121F7C900248E0FF121B7B121BD5FD7518
:10066000F02FEF121AA7E0FEA3E0C3121C55FF60A3
:1006700079121DB7121AF9D3940FEE64809480405A
:1006800022121C27121D2D7401F0121DDB50127551
:10069000F02FEF121AA7E0FCA3E0FD121B7A121B49
:1006A000A88031900248E0FF121DB7F583E0FCC33B
:1006B000EC64809480502B90024CE09400121DDC7E
:1006C000401275F02FEF121AA7E0FCA3E0FD121BF9
:1006D0007A121BA8121C27121CFB121B99121E1C3B
:1006E0008008121C27121D2DE4F0121BFA121CFCAC
:1006F000121E00121CF7121AF9D394FAEE648094B9
:1007000080400B121B63F583E475F0018019121C05
:10071000F7121AF9C39406EE6480947F500C121BF2
:1007200063F58374FFF5F0121F7C900248E0FF121E
:1007300025E9121DC402130BE4900248F0121C7349
:10074000FEC39F40030218D6EE121D6B121BD5FD8F
:10075000900090E02DFD90008FE03CFCEE121D57C4
:10076000121BA8900248E0FF121D57121BD5FD1264
:100770001B7A121AF9C39DFFEE9CFE121C02121D79
:10078000BB121DCB75F02FED121AA7121E23FCFD14
:10079000900248E0121ACB121B58FBC3122076506D
:1007A00003021832900248E0FB121ACB121D642497
:1007B00000FFEE3404FE121AA3121D20900248E03E
:1007C000FD121D86121DCB75F022ED121ACEA3A3C9
:1007D000E0FEA3121C76FD121AA4E0FAA3E0121D9B
:1007E000AE121C19F583EE121C5CFF121ADAD39DAF
:1007F000EE9C900248E0401D121ADAC39DFFEE9C69
:10080000C313FEEF13FFED2FFFEC3EFE900248E016
:1008100075F0128017FB75F012121AF0FF7C007D44
:1008200063121F150D121F2775F012EB121C1D020B
:10083000188C900248E0FB121AA4121E2375F022B5
:10084000EB121ACE121B58121DAEE499FDE498FC6F
:10085000E4FB7A04F9F8D3122076900248E0FF75A1
:10086000F012402D121C1D121AC4A3A3E0FEA31205
:100870001C76FD121AA4E0FAA3E0C39FFFEA9EFED5
:10088000C3E49FFF74049EFEED121D86121DCB80F3
:100890000D121C1D121B99EF121D86121B9990023E
:1008A00048E0FB121A70FF75F022EB121CE3F5838F
:1008B000121B361220A60000000075F022EBA424C3
:1008C0000FF582E5F03400F5831220A60000000049
:1008D000121DC402173DD3900119E09490900118A5
:1008E000E094014008A3E0900118121C8CD3900101
:1008F0002BE0949090012AE094014008A3E090013D
:100900002A121C8C900118E0541F9001CAF090012B
:1009100018A3E09001CBF090012AE0541F9001CC85
:10092000F090012AA3E09001CDF0D3900042E09432
:10093000AA900041E094054008A3E0900041121CF9
:10094000ABD3900064E094AA900063E09405400863
:10095000A3E0900063121CAB900041E0541F900193
:10096000CEF0900041A3E09001CFF0900063E054FE
:100970001F9001D0F0900063A3E09001D1F0122607
:100980009A9001A0E07002A3E060030210711227A8
:100990004612101E122992900166EFF06404600363
:1009A000021A34900001E0FF121D45EF121EE19083
:1009B0000001E0FDD39410403012269F121D451215
:1009C0001E79647E70209001C0E04408F09001A47C
:1009D000E06010E4F0C294C28A000000000000D27F
:1009E00094D28A7F01227F0022EDC3941050081216
:1009F0001D457401121EBF9001C0E054F0F090003C
:100A000001E0FDB401079001C0E04401F0EDB40243
:100A1000079001C0E04402F09001A4E0701004F0DF
:100A2000C294C28A000000000000D294D28A12262A
:100A30009F7F012212269F7F002290024BE0FEA39F
:100A4000E0FF122F0222F583E0FFA3E0900251CFD6
:100A5000F0A3EFF075F02FEBA4248DF582E5F034D0
:100A600000F583E0FFA3E0900253CFF0A3EFF0EB9B
:100A700075F022A42407F582E5F03400F583E0FC4C
:100A8000A3E0FDA3E0FEA3E022900248E0FB75F0A6
:100A900022A42407F582E5F03400F583A3A3E0FE49
:100AA000A3E0FFEB75F02FA4248DF582E5F0340070
:100AB000F58322900248E0FF75F02FA42469F582A7
:100AC000E5F03400F583E4F0A3F0EF75F022A42400
:100AD0000BF582E5F03400F5832225E0243FF58212
:100AE000E43422F583E493FC740193FD75F012EF76
:100AF000A42406F582E5F03401F583E0FEA3E022AC
:100B0000F583E493FC740193FD75F008EFA424329F
:100B1000F582E5F03401F583ECF0A3EDF0EF25E08C
:100B2000245FF582E43422F583E493FC740193FDA1
:100B300075F002EFA42212209A900248E0FB75F0B3
:100B400022A42407F582E5F03400F58322A42403CF
:100B5000F582E5F03400F583E0F8A3E0F9A3E0FACC
:100B6000A3E022900248E0FF75F02FA4246DF582E7
:100B7000E5F03400F583E4F0A3F0EF75F02FA42442
:100B80008FF582E5F0340022900248E0FF75F02FE7
:100B9000A4246BF582E5F03400F583E4F0A3F022A1
:100BA000244AF582E5F03401F583ECF0A3EDF02260
:100BB000900248E0FF75F022A42421F582E5F0348C
:100BC00000F58322900248E0FB75F008A42432F57A
:100BD00082E5F03401F583E0FCA3E022A42496F53D
:100BE00082E5F03400F5837401F075F02FEFA42452
:100BF00097F582E5F03400F5832290024BE0FEA3E6
:100C0000E0FF75F02F900248E0FDA422F0A3F0A3CE
:100C1000F0A3F0A3F0A3F0A322ED75F012A4240634
:100C2000F582E5F0340122900248E075F02F22F0C1
:100C300075F022EFA42423F582E5F03400F5832239
:100C4000C39BFFEE9AFEED99FDEC98FCE47B02FA63
:100C5000F9F8021FE49DFFEE9C90024BF0A3EFF029
:100C6000900248E022EB75F02FA4247BF582E5F09A
:100C7000340022900002E0FF900248E022E0FF757D
:100C8000F02FA42483F582E5F03400222470FFE0E5
:100C900034FEFE7C007D0A121F157D32121F27EFE5
:100CA0002490FFEE3401F0A3EFF0222456FFE0344D
:100CB000FAFE7C007D0A121F157D1E121F27EF24ED
:100CC000AAFFEE3405F0A3EFF022FFE4EFF075F099
:100CD00022EBA4240BF582E5F0340022900248E0D8
:100CE00075F022A42403F582E5F0340022A42469DF
:100CF000F582E5F034002275F02FEDA4246DF58225
:100D0000E5F0340022746D2BF582E43401F5832282
:100D1000FDECF0EDA3F0900253E0FCA3E0FDEC222B
:100D2000E0FCA3E0FDC3EF9DFFEE9CFE22A4249512
:100D3000F582E5F03400F58322A42496F582E5F0EF
:100D40003400F58322900245E0FBA3E0FAA3E0F92A
:100D500022FF780802208775F02FA42485F582E50C
:100D6000F0340022A3A3E0FEA3E02275F02FA42418
:100D700091F582E5F034002275F02FEDA4246BF597
:100D800082E5F034002275F022A4241FF582E5F0FC
:100D90003400229001A6E024ADF582E43401F5830D
:100DA0002275F02FA4248BF582E5F0340022FBC3DA
:100DB000EF9BFFEE9AFE2275F02FA42487F582E5C3
:100DC000F0340022900248E004F022F583EEF0A314
:100DD000EFF022900248E075F02222C390024BE02F
:100DE00064809480222444F582E5F034012224506A
:100DF000F582E5F03401222456F582E5F034012233
:100E0000F583EE8FF0021F7CE0FEC8EFC80822C811
:100E1000ECC8C9EDC9CAEECACBEFCB2290024BF0A9
:100E2000A3F022E0FEA3E0FFE42225E025E0247702
:100E3000F582E4340122E49001B4F0A3F022E4EF5F
:100E4000F075F022EB222401FFE43EFEE43DFDE4D8
:100E50003C22FFEFF0900251E0FCA3E0222FFFEADA
:100E60003EFEE93DFDE83C22902EC97420F0229020
:100E7000016CE0FF75F002A422BB010689828A831F
:100E8000E0225002E722BBFE02E32289828A83E449
:100E90009322BB010CE58229F582E5833AF583E0D4
:100EA000225006E92582F8E622BBFE06E92582F8F3
:100EB000E222E58229F582E5833AF583E49322BBB9
:100EC000010989828A83F8E028F022500327F7225B
:100ED000BBFE05F8E328F3228A838982F8E493288D
:100EE00022BB010689828A83F0225002F722BBFED0
:100EF00001F322F8BB010DE58229F582E5833AF57D
:100F000083E8F0225006E92582C8F622BBFE05E9F7
:100F10002582C8F222EF8DF0A4A8F0CF8CF0A4288F
:100F2000CE8DF0A42EFE22BC000BBE0029EF8DF06A
:100F300084FFADF022E4CCF875F008EF2FFFEE331C
:100F4000FEEC33FCEE9DEC984005FCEE9DFE0FD5CB
:100F5000F0E9E4CEFD22EDF8F5F0EE8420D21CFE9F
:100F6000ADF075F008EF2FFFED33FD400798500608
:100F7000D5F0F222C398FD0FD5F0EA22C5F0F8A310
:100F8000E028F0C5F0F8E582158270021583E0389C
:100F9000F022A3F8E0C5F025F0F0E582158270029A
:100FA0001583E0C838F0E82275F008758200EF2F4D
:100FB000FFEE33FECD33CDCC33CCC58233C5829B1F
:100FC000ED9AEC99E58298400CF582EE9BFEED9A45
:100FD000FDEC99FC0FD5F0D6E4CEFBE4CDFAE4CCE1
:100FE000F9A88222B800C1B90059BA002DEC8BF0E3
:100FF00084CFCECDFCE5F0CBF97818EF2FFFEE33A0
:10100000FEED33FDEC33FCEB33FB10D703994004CA
:10101000EB99FB0FD8E5E4F9FA227818EF2FFFEEF1
:1010200033FEED33FDEC33FCC933C910D7059BE922
:101030009A4007EC9BFCE99AF90FD8E0E4C9FAE47E
:10104000CCFB2275F010EF2FFFEE33FEED33FDCC1D
:1010500033CCC833C810D7079BEC9AE899400AED07
:101060009BFDEC9AFCE899F80FD5F0DAE4CDFBE4AF
:10107000CCFAE4C8F922EB9FF5F0EA9E42F0E99D34
:1010800042F0E89C45F022E8600FECC313FCED133E
:10109000FDEE13FEEF13FFD8F122ECF0A3EDF0A369
:1010A000EEF0A3EFF022A8828583F0D083D08212E5
:1010B00020BD1220BD1220BD1220BDE473E493A315
:1010C000C583C5F0C583C8C582C8F0A3C583C5F074
:1010D000C583C8C582C822EF4E6012EF60010EEDD5
:1010E000BB010B89828A83F0A3DFFCDEFA2289F040
:1010F0005007F709DFFCA9F022BBFEFCF309DFFC77
:10110000A9F0223F3F3F3F3F3F3F3F0032000A00F0
:1011100032177009C4006400320032000A000A006D
:101120000000000000000000000000000101010DAF
:101130000E0F030405060708090A0B0C0001020044
:1011400037003700370037003700370037003700E7
:1011500037003700370037003700370037003700D7
:1011600050005000500050005000500050005000FF
:1011700050005000500050005000500050005000EF
:101180001E001E001E001E001E001E001E001E006F
:101190001E001E001E001E001E001E001E001E005F
:1011A0002D002D002D002D002D002D002D002D00D7
:1011B0002D002D002D002D002D002D002D002D00C7
:1011C0007800870078007800780078007800780050
:1011D000780078007800780078007800780078004F
:1011E0009100A00091009100910091009100910068
:1011F0009100910091009100910091009100910067
:101200005F006E005F005F005F005F005F005F00D7
:101210005F005F005F005F005F005F005F005F00D6
:101220002D002D002D002D002D002D002D002D0056
:101230002D002D002D002D002D002D002D002D0046
:10124000FA00FA00FA00FA00FA00FA00FA00FA00CE
:10125000FA00FA00FA00FA00FA00FA00FA00FA00BE
:1012600014001400140014001400140014001400DE
:10127000140014001400140014001400140014C00E
:10128000E0C0F0C083C082C0D0E8C0E0E9C0E0EABE
:10129000C0E0EBC0E0ECC0E0EDC0E0EEC0E0EFC0CD
:1012A000E0D2AF90015CE0600302235390025774D8
:1012B0002EF0A3E4F0121D93E090016BF090015D1D
:1012C000E004F0E05407F0E090210393902ECAF080
:1012D00090016BE0FD75F002A4FFAEF0900258E0C3
:1012E0002FF0900257E03EF0ED90212F939001A552
:1012F000F0121B3EC083C082121B58FBE8C0E09076
:101300000257E475F002121F9285F082121AF9FF5B
:10131000E4FCFDD0E0F8EB2FFFEA3EFEED39FDECFA
:1013200038FCD082D08312209A90015DE070219029
:1013300001A6E004F0E0FF900002E0FEEF8EF084F2
:10134000AFF09001A6EFF0700790015C04F080030D
:1013500012269FD0E0FFD0E0FED0E0FDD0E0FCD030
:10136000E0FBD0E0FAD0E0F9D0E0F8D0D0D082D0E5
:1013700083D0F0D0E032C0E0C083C082C0D0E8C0EB
:10138000E0E9C0E0EAC0E0EBC0E0EFC0E0D2AFE5EA
:10139000DB30E415E5DB30E10280289001BFE5DFBA
:1013A000F0900240E4F0022445E5DB30E508122F1E
:1013B0000E9001BC802BE5DB30E119E5DB20E0037A
:1013C000022445900242122C7A122C93121E92F59E
:1013D000DF022445900240E0700DA3E5DFF09002AB
:1013E000407401F0022445900241E090284F93FFA1
:1013F000B4FF0E9001BFE5DFF0900241E004F08001
:101400003EEF640F900242702B122C7A900241E062
:10141000FF122CA7540F121EE1900242122C7A9058
:101420000241E0FF04F0122CA7FFE5DF54F04F1259
:101430001EE1800B122C7A122C93E5DF121EF39022
:1014400001BEE004F075DBFFD0E0FFD0E0FBD0E0B0
:10145000FAD0E0F9D0E0F8D0D0D082D083D0E0321A
:101460009001D3E0FE6410705BFF900002E0FDEF9E
:10147000C39D4003022521EF25E024DFF582E434FB
:1014800021121B27121BA0EF25E024BFF582E434B4
:1014900021121B27121DE5121BA8EF25E024FFF5E2
:1014A00082E43421121B27121DEE121BA8EF25E047
:1014B000241FF582E43422121B00121DF7121BA810
:1014C0000F02246AEE6420706AFF900002E0FEEFD3
:1014D000C39E504DEF25E0245FF582E43421121BBA
:1014E00027121BA0EF25E0243FF582E43421121BD4
:1014F00027121DE5121BA8EF25E0247FF582E434B6
:1015000021121B27121DEE121BA8EF25E0249FF5C8
:1015100082E43421121B00121DF7121BA80F0224B3
:10152000CA900146A3E09001C4F0900148A3E09066
:1015300001C5F022E4900246F0FF900245F0EF145E
:10154000601E14603514604C14605B240470749049
:1015500002477401F0A3742FF0A37458F00225BD64
:10156000122C77900001121E92FED3941F4003129A
:101570002CA0121E796E704B8043122C77900002C3
:10158000121E92FED394064003122CA0121E796EF6
:1015900070318029122C77900003121E92FE121EC9
:1015A000796E701F8017122C77900004121E92FE25
:1015B000648B6003122CA0121E796E700690024597
:1015C000E004F00FEF6405600302253E900245E061
:1015D000B40504A37401F0900246E0FD6007900199
:1015E000D4E0547FF0CFEDCF22CBEFCB121AA3E0A3
:1015F000FEA3E0FFEB121DA1121BD5C39FFFEC9EC3
:10160000900255F0A3EFF0EB64017044EB121B7BEA
:10161000121A46121D51900210121E3E121B41A3B7
:10162000A3A3E0900211121CCA121A7C121D51E4ED
:10163000900212EFF0EB121ACBA3A3A3E0900213D7
:10164000121E52900214121D10900216F0EDA3F01B
:10165000EB64027044EB121D57121A46121D519092
:101660000218121E3E121B41A3A3A3E090021912FE
:101670001CCA121A7C121D51E490021A121E3F124B
:101680001ACEA3A3A3E090021B121E5290021C12BA
:101690001D1090021EF0EDA3F022E490015CF01208
:1016A0001D93E0FFC394085042902EC6E054FCF016
:1016B000E04401F0902EC57401F0C083C082121E78
:1016C000088002C333D8FCD082D083F0902ECD7432
:1016D00001F0C083C082121E088002C333D8FCD040
:1016E00082D083F0902EC074C1F02274F82FFF9046
:1016F0002EC6E054FCF0E04402F0902EC57401F0D8
:10170000C083C082121E088002C333D8FCD082D0AE
:1017100083F0902ECE7401F0C083C082121E088028
:1017200002C333D8FCD082D083F0EFB40503121E7D
:1017300068EFB40603121E68EFB40703121E689028
:101740002EC074C2F022E4FFFE900251F0A3F0A379
:10175000F0F9FDFC900002E0FBECC39B5052EC1250
:101760001C1AF583E0FAA3E0FBD3940FEA9400403F
:1017700006900252E004F0D3EB942DEA9400400668
:10178000900253E004F0D3EB9437EA94004001094F
:10179000D3EB9441EA940040010DD3EB9FEA9E40C5
:1017A0000C900251ECF075F012121AF0FF0C80A4AC
:1017B000900252E09001A7F0900253E09001A8F04F
:1017C000A3E9F0A3EDF0900251E090016CF0220249
:1017D00029F2E493A3F8E493A34003F68001F2080E
:1017E000DFF48029E493A3F85407240CC8C333C45E
:1017F000540F4420C8834004F456800146F6DFE4C9
:10180000800B0102040810204080902C3DE47E01F2
:101810009360BCA3FF543F30E509541FFEE493A33B
:1018200060010ECF54C025E060A840B8E493A3FA4D
:10183000E493A3F8E493A3C8C582C8CAC583CAF0D9
:10184000A3C8C582C8CAC583CADFE9DEE780BE0F68
:10185000FFFF00000000000000FFFFFFFFFFFFFF91
:10186000FFFF00000000000000000000000000007A
:101870000000000000000000000000000000000068
:101880000000000000000000000000000000000058
:101890000000000000000000000000000000000048
:1018A0000000000000000000000000000000000038
:1018B0000000000000000000000000000000000028
:1018C0000000000000000000000000000000009088
:1018D0002EC0E4F0902ECB74F1F0902F58E0540F0E
:1018E00024F0902EC8F0902ECC7448F0902EC9743D
:1018F0002AF0A37408F0902E407481121C0CF0A3FF
:10190000F0A304121C0C7402F0A37481F0902EC694
:101910007415F0902EC17490F0A37401F0A374209C
:10192000F0A37407F043E310122DC1900002EFF012
:1019300022900251EFF0C3940A5054E0FF246D123C
:101940001D08E0604AEF121E2A121B56FB9001B0E0
:10195000121A7EC39BFBEE9AFAED99F9EC98F89077
:101960000251E025E0240BF582E43421F583E49371
:10197000FE740193FFE4FCFDC3122076400E90023A
:1019800051E0246D121D08E4F07F01227F00227FC8
:101990000022122EB8EF600122122CB0EF6001225B
:1019A0009001B9E0248F600C24F3702A122D71127B
:1019B0002EA0803B122E30900167E07002A3E070F1
:1019C000057F03122D9B900168E004F070219001C7
:1019D00067E004F08019122EA09001B9E0FF122EEA
:1019E0000D7F04122931EF600612269A7F02227FB2
:1019F0000422752001122A9653A87F122CE5122E7C
:101A0000F612104E122EE9122E6C43A880122E4FA1
:101A1000EF24E0600E24A0601024707018C283C20E
:101A2000828012D283D282800C122ED975870375E0
:101A30008601122EF61224607B017A02795B121065
:101A400066EF80C9C0E0C0F0C083C082C0D0E8C0EB
:101A5000E0ECC0E0EDC0E0EEC0E0EFC0E0D2AF905F
:101A60000163E004F0C3940A4012E4F09001B01264
:101A70001A7E121E46FC9001B012209AD0E0FFD0D0
:101A8000E0FED0E0FDD0E0FCD0E0F8D0D0D082D0B5
:101A900083D0F0D0E0329002457410F0A3E4F0A3BC
:101AA000743FF0A374FFF0E4FDFCF9900245E0FE02
:101AB000A3E02DF582EE3CF583E493FF69F90DBDBB
:101AC00000010CBC2FE5BDFFE2900247E0FEA3E061
:101AD000F5828E83E4936970069001BD04F022E4E0
:101AE0009001BDF02290014CA3E0900218F090010B
:101AF0004EA3E0900219F0900146A3E090021AF084
:101B0000900148A3E090021BF0900152A3E09002E4
:101B10001CF0900154A3E090021DF090224174014A
:101B20009390021EF090224374019390021FF022C2
:101B3000E4900167F0A3F09001B7F0A3F090016486
:101B4000F0A3F09001ABF0A3F0900001747EF012CE
:101B50001E36FB900002E0FFEBC39F5019121C657C
:101B6000F5831220A60000000075F02FEB121C82F6
:101B7000121B990B80DD22E4900251F0122D19EF17
:101B8000647F60012290016AE0701A04F0121E6FF7
:101B9000244AF582E5F03401121BD5121AEBC39DDD
:101BA000EE9C401422121E6F121DE5121BD5121A54
:101BB000EBC39DEE9C4001227F7E22CBEFCBEBB4AA
:101BC000011B900029121A7E121D519001F0EFF0B6
:101BD000900029A3A3A3E0FF9001F1EFF0EBB40282
:101BE0001B90004B121A7E121D519001F2EFF090E3
:101BF000004BA3A3A3E0FF9001F3EFF0227E007F50
:101C0000807D007B017A0179C01220D79001C074D9
:101C100008F09001C27401F09001D274ABF0900111
:101C2000D47481F01225349001BDE060089001C1A8
:101C30007412F08005E49001C1F0022AE54101A48C
:101C4000004101A6004101630041000000C10941BB
:101C5000016900C1084101B6004102400041024152
:101C6000004201BA00004101BC004101BE00410137
:101C7000BD004101BF1000900247E0FBA3E0FAA3C2
:101C8000E0F922E4F5DA75DA4043DA2075D74075D9
:101C9000DA5822900241E0FF04F08F82758300221F
:101CA0009002467401F022E92FF9E43AFA021E7913
:101CB000D39001A1E094009001A0E094004023D3D0
:101CC000900165E0940A900164E09400500E900148
:101CD00068E0940A900167E09400400612269A7F1B
:101CE00002227F0022758A50538AEFE4F5AD75AE6B
:101CF000F075AF09F5AC7589FF75913F75991FF5C2
:101D00009675931F759B10F595F592F59A75800C55
:101D1000F588F590D294D28A22900001E0FFC39416
:101D2000105020A3E0FEEFC39E5018900001E07514
:101D3000F002A4121DEE121BD5121AEBC39DEE9CED
:101D40004001227F7F227E017F607D007B017A003F
:101D500079031220D7122BFD9001D37410F01224B6
:101D6000609001B9747EF0900001F0E490016AF097
:101D700022900001747EF07F04122EA99001B4E03D
:101D80007002A3E060147F02122D9B7F02122931A2
:101D9000EF6007121E3690016AF022CBEFCBEBD337
:101DA000940A501C121D05E07016121D057401F0F6
:101DB0009001B0121A7EFFEB121E2AF58312209AB0
:101DC00022902EC5E4F0902ECDF0A3F0FFFEEF9010
:101DD000211F93600974AD2E121D99EFF00E0FEFC5
:101DE000B410EBCFEECF229001667402F053A87FBF
:101DF00012269F43A82043A880E49001A0F0A3F0FE
:101E00009001A0F0A304F0E490019FF022CAEFCA71
:101E1000EAC394105019900001E06A60127F041226
:101E20002D9B900001EAF09001B4E4F0A304F022AD
:101E30009001B4E07002A3E060147F02122D9B7F3A
:101E400002122931EF6007121E3690016AF022E477
:101E5000FD9001BCE060119001C0E0FE54F0FDEE89
:101E6000540FF0E49001BCF0CFEDCF229002427409
:101E700001F0A37401F0A374C0F0122C8343A908ED
:101E800075B80875F808229001B01220A60000006D
:101E9000007E007F0A7D007B017A01796D0220D7E8
:101EA000E4900167F0A3F07F03EFD3940A50087425
:101EB0006D2F121D08E4F0227F01122931EF600618
:101EC00012269A7F02227F00227F09122931EF60B9
:101ED00007E49001A0F0A3F022E4F58D902ECBF062
:101EE000902ECEF0F586F58F2275BA9275BEF9E484
:101EF000F5BF43AA02221228CF9001667401F002B6
:101F00002D46EE30E707C3E49FFFE49EFE22122C2D
:101F1000832200000000000000000000000000001C
:101F200000000000000000000000000000000000B1
:101F300000000000000000000000000000000000A1
:101F40000000000000000000000000000000000091
:101F50000000000000000000000000000000000081
:102FF00000000000000000000000000000000030A1
:00000001FF
